S0190000323031385F31325F31375F53746F706B792E73726563CE
S11300000C9456000C9473000C9473000C947300BD
S11300100C9473000C9473000C9473000C94730090
S11300200C9473000C9473000C9473000C94730080
S11300300C9473000C9473000C9473000C94730070
S11300400C94D8000C9473000C9473000C947300FB
S11300500C9473000C9473000C9473000C94730050
S11300600C9473000C9473000C9473000C94730040
S11300700C9473000C9473000C9473000C94730030
S11300800C9473000C9473000C947300B4009600E9
S113009098009A009C009E00A000A200A400A60064
S11300A0A800AA00AC00AE00B000B20011241FBE2C
S11300B0CFEFD0E1DEBFCDBF11E0A0E0B1E0E6E3D9
S11300C0F3E002C005900D92A230B107D9F721E008
S11300D0A2E0B1E001C01D92AA30B207E1F70E948C
S11300E07E010C9499010C9400009FEF94BB8AB399
S11300F087618ABB2FEF3FEF8CE221503040804074
S1130100E1F700C0000095BB8BB387618BBB86B75A
S11301108E7F86BF87B7816087BF789408958F707C
S113012090E0FC01EA5BFF4F0C94930186E0089594
S11301308BE508958DE6089586E608958DE6089585
S11301408DE7089587E008958FE708958FE6089571
S113015087E708958CE7089589E3089589E308956E
S113016089E3089589E308958FE30895CF93DF9396
S1130170D82FC62F0E948F008095809308018D2F61
S113018082958F700E948F008095809304018C2F3C
S11301900E948F008095809306018C2F82958F702A
S11301A00E948F00809580930901DF91CF9108957B
S11301B01F920F920FB60F9211242F933F934F93D8
S11301C05F936F937F938F939F93AF93BF93EF93BB
S11301D0FF9380910001815019F08093000119C0B0
S11301E089E080930001809107018F5F809307016C
S11301F080910701843639F4809103018F5F8093E5
S113020003011092070160910301809107010E948C
S1130210B600FF91EF91BF91AF919F918F917F9124
S11302206F915F914F913F912F910F900FBE0F905F
S11302301F9018958FEF85BB8BB387618BBB84B3FD
S1130240887F84BB88E18A95F1F700C083B38093EB
S1130250050184B3876084BB8091050180FD06C0DD
S113026081E08093020183B7846083BF809105019C
S113027081FD06C082E08093020183B78B7F83BF38
S11302808091050182FD0CC01092020110920301BD
S11302901092070160910301809107010E94B6004A
S11302A008958091080185BBD8988FEF97E4019752
S11302B0F1F700C00000D89A8091040185BBD99859
S11302C08FEF97E40197F1F700C00000D99A80916D
S11302D0060185BBDA988FEF97E40197F1F700C028
S11302E00000DA9A8091090185BBDC988FEF97E4CE
S11302F00197F1F700C00000DC9A08950E94750090
S113030084E38093070182E18093030160910301F8
S1130310809107010E94B6000E9451010E941A01B7
S11303200E945101FBCFEE0FFF1F0590F491E02DC9
S10903300994F894FFCFCC
S10503360900B8
S9030000FC
